:1070000061C000006DC300006BC3000069C30000D5
:1070100067C3000065C3000063C3000061C30000D4
:107020005FC300005DC300005BC3000059C30000E4
:1070300057C3000055C3000053C3000051C30000F4
:107040004FC300004DC300004BC3000049C3000004
:1070500047C3000045C3000043C3000041C3000014
:107060003FC300003DC3000001020408102040801F
:107070000102040810200102040810200000000092
:10708000240027002A0000000000250028002B0013
:1070900004040404040404040202020202020303BE
:1070A000030303030005000346756C6C0000050034
:1070B000044F70636F64653F000005000045727205
:1070C0006F72000011241FBECFEFD8E0DEBFCDBF2E
:1070D00011E0A0E0B1E0E2EAFBE702C005900D920A
:1070E000A232B107D9F721E0A2E2B1E001C01D92BE
:1070F000A333B207E1F701D052C5CDB7DEB7DA95B9
:10710000DEBFCDBF112484B714BE8D7089F082E03C
:1071100090E02FD58E3E61F40FB6F894A89580913B
:107120006000886180936000109260000FBEC2D33F
:1071300088E199E20FB6F894A895809360000FBE9D
:107140009093600084E08093810090E080E011D50E
:10715000813021F061E090E080E013D581E090E0A3
:1071600008D5833021F063E081E090E00AD581E426
:1071700090E0FFD48B3021F06BE081E490E001D50A
:1071800082E490E0F6D4833021F063E082E490E082
:10719000F8D483E490E0EDD4813221F061E283E41D
:1071A00090E0EFD482E08093C00088E18093C1003A
:1071B00086E08093C20080E18093C40082E090E08A
:1071C000D8D48D3D39F46EEE82E090E0DAD481E0DF
:1071D000809329011CBC84E085B98CE284B984E4E5
:1071E00090E0C7D48F3F01F190E0FC01E057FF48E9
:1071F000249130E0220F331FF901EA57FF484591EF
:1072000054915093200140931F01F901E458FF4825
:1072100025913491309301012093000188599F48B2
:10722000FC01849180931E01E0911F01F0912001E7
:10723000908180911E01982B9083E0910001F09144
:1072400001019081892B80835C9A549A80E58CBDE2
:1072500081E08DBD85E490E08CD48F3F09F434C08B
:1072600090E0FC01E057FF48249130E0220F331FEB
:10727000F901EA57FF48A591B491F901E458FF4894
:107280002591349188599F48FC0184919C91982BB9
:107290009C93F9019081982B90832C91982F909535
:1072A00092239C93EFE1FEE43197F1F700C00000D8
:1072B000EC918E2B8C93FFEF2DEE82E0F15020406D
:1072C0008040E1F700C0000083E090E052D48535B3
:1072D00009F49FC0E2E0EE2EE1E0FE2E10E000E0B7
:1072E000F70141917F0164E0C8016CD20F5F1F4F2D
:1072F0000C311105A9F71CE0F12CE12C42E0612FC3
:107300008EE190E05FD242E0612F8FE190E05AD2AF
:10731000FFEFEF1AFF0A105E28E0E216F10471F7A2
:10732000CCD21092280110922701D12CC12C6624B6
:10733000639453E0752E5E0181E8A80EB11C61E1F3
:10734000562E8091280190913001892B09F0C5C0FB
:1073500086E290E027D28C0130E020E0021713078C
:1073600009F06EC00115110509F4B7C0609227013C
:10737000C9D2482EF3E08F1709F48AC0F81708F431
:107380006BC021E0821709F479C082E0481609F445
:1073900089C04AE050E069EB70E7CE010196E0D386
:1073A0004AE0342E84E290E0FDD14C01232C8E0182
:1073B0000F5F1F4F2A94FFEF2F1284C0B401630D9B
:1073C000711D84E290E026D240E26CE681E090E01C
:1073D000F9D168E681E090E0BFD18111FACF24E0D5
:1073E00042127BC040E16CE681E090E0EBD10FB649
:1073F000F894A89580916000886180936000109255
:1074000060000FBE57D290E080E0D395DEBFCDBFC5
:10741000089584E090E0ADD38A3A09F05BCF73E041
:10742000E72E71E0F72E05E010E0C801A2D3F701C6
:1074300081937F010F5F1F4F07311105B1F74ACFCD
:10744000EFE1FEE43197F1F700C0000086E290E042
:10745000A9D198018C0182CF94E089139ACF198227
:10746000E4E0EA8380912A0190912B0198278927F3
:1074700098279C838B8394E0392E94CF4CE050E086
:107480006DEA70E7CE0101966BD33CE0332E8ACFD4
:1074900049E050E064EA70E7CE01019661D329E04B
:1074A000322E80CF80912A0190912B0120912C01C6
:1074B00030912D012817390790F690932D01809374
:1074C0002C01CDCF7C01FFEFEF1AFF0AF8014191AB
:1074D0008F0164E777D1C7016DCF4090270141103C
:1074E0001AC08091C00087FF11C0FBD060922801B4
:1074F00002D1813409F04BC0FED0182F0FD183E0A8
:10750000113809F48BE003D180E101D1F6018591B6
:1075100094910196D9F080913101909132010A97AE
:10752000A8F082E090E025D38E3E29F480912901D5
:10753000882309F45CCF91E0491208C0F6017092EB
:107540005700E895BAD1CDD010922701A895809127
:1075500084009091850094FFC1C025B130E22327BB
:1075600025B920912501309126018217930750F407
:1075700020913101309132012F5F3F4F3093320122
:10758000209331019093260180932501DACE823435
:1075900019F484E1CFD0B8CF853411F485E0FACF67
:1075A000853569F4A8D0082F10E0A5D0182B000F5E
:1075B000111F1093240100932301B0D0A5CF86356D
:1075C00021F484E0B7D080E09ECF843609F050C02B
:1075D00092D091D0809322018ED0009123011091FE
:1075E0002401FE0131967F01011580E7180738F468
:1075F000F80170925700E895CE0101967C01470191
:10760000FFEFEF1AFF0A77D0F40180838091220107
:107610008150809322018111F2CF0115F0E71F07FD
:1076200020F0F80170925700E89578D007B600FC7A
:10763000FDCF8981DE011196F80111969C91119779
:107640000C0160925700E895112432961296AA1602
:10765000BB0611F08C91F1CF25E0F8012093570083
:10766000E89507B600FCFDCF50925700E8954CCF47
:107670008437D1F440D03FD0809322013CD04ED00B
:10768000E0912301F0912401CF0101969093240110
:107690008093230184913BD080912201815080937B
:1076A00022018111EDCF30CF853739F437D08EE10B
:1076B0002ED085E92CD08FE026CF813509F07DCF03
:1076C0002DD06EEE82E090E05CD280E120D08FE998
:1076D0009FE00197F1F700C0000089CE2D9841CFBF
:1076E0008FCC10928500109284001092320110927B
:1076F0003101A89508958091C00087FFFCCF80914B
:10770000C00084FD01C0A8958091C60008959091A5
:10771000C00095FFFCCF8093C6000895ECDF803257
:1077200039F088E18093600088E080936000FFCFAB
:1077300084E1EDCFCF93C82FDEDFC150E9F7CF91C1
:10774000EDCFE0911F01F0912001908180911E0109
:1077500080958923808308951F93CF93DF93EC0155
:10776000162FEFDF8D2F99278EBD0DB407FEFDCFAD
:10777000CEBD0DB407FEFDCF1EBD0DB407FEFDCF7F
:107780001EBC0DB407FEFDCFE0911F01F09120015A
:10779000808190911E01892B80838EB5DF91CF91DE
:1077A0001F9108951F93CF93DF93EC0168E6D4DF18
:1077B000182F68E6CE010196CFDF912FDF91CF9190
:1077C0001F9108950F931F93CF93DF93EC01062F22
:1077D000142FB7DF8D2F99278EBD0DB407FEFDCF77
:1077E000CEBD0DB407FEFDCF0EBD0DB407FEFDCF1F
:1077F0001EBD0DB407FEFDCFE0911F01F0912001E9
:10780000808190911E01892B8083DF91CF911F9100
:107810000F9108950F931F93CF93DF93EC018B018A
:10782000472F55276CE6CE01CDDF402F6CE6CE0109
:107830000196DF91CF911F910F91C4CF0F931F93AA
:10784000CF938C0140E16CE681E090E0BBDFC1E8C2
:1078500068E681E090E080DFC15039F481E08093F8
:107860003001CF911F910F9108958111F1CFC1E89F
:107870004FEF6CE682E090E0A5DF42E06CE690E03E
:1078800080E0A0DFB80184E090E0C4DF41E06CE676
:1078900081E090E097DF68E681E090E05DDF8111B4
:1078A000FACFC150D9F268E683E090E055DF82322A
:1078B000F9F6D7CFEE27FF270994CF931092300126
:1078C00085E490E0BBDF87E190E053D18B3B99F4F6
:1078D00089E190E04ED1C82F88E190E04AD12C2F69
:1078E00030E0322F2227280F311D30932F012093B3
:1078F0002E01CF91089589E797EB90932F01809304
:107900002E01F7CF6F927F928F929F92AF92BF928C
:10791000CF92DF92EF92FF920F931F93CF93DF935B
:10792000CDB7DEB7CC50D240DEBFCDBF88E290E00D
:1079300039DF7C015C01CE0101966C018C014E01A6
:1079400093EF891A9DEF990AC5013601EFEFCE1A20
:10795000DE0A68E7FFEFAF1ABF0AFEDEF30180839D
:10796000C814D90489F7B701645F7D4F88E290E0BD
:1079700051DF40E46CE681E090E024DF68E681E0DE
:1079800090E0EADED82E8111F9CF58015CE0E52EB7
:10799000F12CF50141915F016CE6C70113DFFFEFA8
:1079A000EF1AFF0A22E1E216F10499F74F8150E045
:1079B000542F4427A884A40EB52EB11C2985822FEC
:1079C00090E0982F88272A85280F392F311DEB84C6
:1079D000F12CFE2CEE248C85E80EF11C23303105B1
:1079E00099F589E3E816F104D8F580912C0190917E
:1079F0002D01E816F906A0F101968E159F0580F17C
:107A000025E0A21622E0B20658F56BDEA50144502F
:107A10005109F0922B01E0922A01E1E0EE1AF108FF
:107A2000FE2CEE24FF0CCA018E0D9F1D8130904765
:107A300008F093C0A2E0DA2E411522E0520708F0C8
:107A40004AC0F4E0DF2E47C095E0A91692E0B906DF
:107A500038F42230310541F15CF42130310581F0F8
:107A600080912E0190912F01E9DEDD24D39408C08E
:107A70002330310551F2245031092230310580F78D
:107A80008D2DC45FDD4FDEBFCDBFDF91CF911F9144
:107A90000F91FF90EF90DF90CF90BF90AF909F90AD
:107AA0008F907F906F9008951CDE6FEF82E090E0E2
:107AB00068D080912E0190912F01C0DE10922D018F
:107AC00010922C0110922B0110922A0112E0D12E5B
:107AD000D7CF4F5F5F4F9A012F773327211531059D
:107AE000C1F761E0D701A058B10973E095E0C92E54
:107AF000E1E1BE2E2417350740F0F4E0DF12C0CFDD
:107B00006EEE82E090E03DD0BBCF49018E0C9F1C11
:107B1000F80195858485F4010C0160935700E89580
:107B200011242E5F3F4FC9018F779927892B91F43C
:107B3000FD01E20FF31F70935700E89507B600FCB4
:107B4000FDCFC0925700E89507B600FCFDCFB0927C
:107B50005700E8950E5F1F4FCDCF83E0D82E90CF12
:107B6000FB01DC0102C005900D9241505040D8F756
:107B70000895F999FECF92BD81BDF89A992780B5F5
:107B80000895262FF999FECF1FBA92BD81BD20BD61
:107B90000FB6F894FA9AF99A0FBE01960895F894E0
:027BA000FFCF15
:107BA200240080C0A80101FFFFFF00DEADBEEFFE92
:107BB200EDC0A8018000000000000007D0080425E5
:027BC2000000C1
:040000030000700089
:00000001FF
